{
  "_format": "hh-sol-artifact-1",
  "contractName": "BuyMeACoffee",
  "sourceName": "contracts/BuyMeACoffee.sol",
  "abi": [
    {
      "inputs": [],
      "stateMutability": "nonpayable",
      "type": "constructor"
    },
    {
      "anonymous": false,
      "inputs": [
        {
          "indexed": false,
          "internalType": "string",
          "name": "name",
          "type": "string"
        },
        {
          "indexed": false,
          "internalType": "string",
          "name": "message",
          "type": "string"
        },
        {
          "indexed": false,
          "internalType": "address",
          "name": "from",
          "type": "address"
        },
        {
          "indexed": false,
          "internalType": "uint256",
          "name": "timestamp",
          "type": "uint256"
        }
      ],
      "name": "newMemo",
      "type": "event"
    },
    {
      "inputs": [
        {
          "internalType": "string",
          "name": "name",
          "type": "string"
        },
        {
          "internalType": "string",
          "name": "message",
          "type": "string"
        }
      ],
      "name": "buyCoffee",
      "outputs": [],
      "stateMutability": "payable",
      "type": "function"
    },
    {
      "inputs": [],
      "name": "getMemos",
      "outputs": [
        {
          "components": [
            {
              "internalType": "string",
              "name": "name",
              "type": "string"
            },
            {
              "internalType": "string",
              "name": "message",
              "type": "string"
            },
            {
              "internalType": "address",
              "name": "from",
              "type": "address"
            },
            {
              "internalType": "uint256",
              "name": "timestamp",
              "type": "uint256"
            }
          ],
          "internalType": "struct BuyMeACoffee.memo[]",
          "name": "",
          "type": "tuple[]"
        }
      ],
      "stateMutability": "view",
      "type": "function"
    },
    {
      "inputs": [],
      "name": "withdrawTips",
      "outputs": [],
      "stateMutability": "nonpayable",
      "type": "function"
    }
  ],
  "bytecode": "0x608060405234801561001057600080fd5b5033600160006101000a81548173ffffffffffffffffffffffffffffffffffffffff021916908373ffffffffffffffffffffffffffffffffffffffff160217905550610ab2806100616000396000f3fe6080604052600436106100345760003560e01c8063204206e1146100395780633aaa74b214610055578063865c51721461006c575b600080fd5b610053600480360381019061004e919061064c565b610097565b005b34801561006157600080fd5b5061006a61020a565b005b34801561007857600080fd5b5061008161026c565b60405161008e91906108d2565b60405180910390f35b600034116100da576040517f08c379a00000000000000000000000000000000000000000000000000000000081526004016100d190610951565b60405180910390fd5b600060405180608001604052808481526020018381526020013373ffffffffffffffffffffffffffffffffffffffff168152602001428152509080600181540180825580915050600190039060005260206000209060040201600090919091909150600082015181600001908051906020019061015892919061044f565b50602082015181600101908051906020019061017592919061044f565b5060408201518160020160006101000a81548173ffffffffffffffffffffffffffffffffffffffff021916908373ffffffffffffffffffffffffffffffffffffffff1602179055506060820151816003015550507f0a54f0898120a63d49aefd8bf3aa0aa596d76b09c8fa0fc01fc287715b6b7351828233426040516101fe94939291906109c8565b60405180910390a15050565b600160009054906101000a900473ffffffffffffffffffffffffffffffffffffffff1673ffffffffffffffffffffffffffffffffffffffff166108fc479081150290604051600060405180830381858888f1935050505061026a57600080fd5b565b60606000805480602002602001604051908101604052809291908181526020016000905b8282101561044657838290600052602060002090600402016040518060800160405290816000820180546102c390610a4a565b80601f01602080910402602001604051908101604052809291908181526020018280546102ef90610a4a565b801561033c5780601f106103115761010080835404028352916020019161033c565b820191906000526020600020905b81548152906001019060200180831161031f57829003601f168201915b5050505050815260200160018201805461035590610a4a565b80601f016020809104026020016040519081016040528092919081815260200182805461038190610a4a565b80156103ce5780601f106103a3576101008083540402835291602001916103ce565b820191906000526020600020905b8154815290600101906020018083116103b157829003601f168201915b505050505081526020016002820160009054906101000a900473ffffffffffffffffffffffffffffffffffffffff1673ffffffffffffffffffffffffffffffffffffffff1673ffffffffffffffffffffffffffffffffffffffff16815260200160038201548152505081526020019060010190610290565b50505050905090565b82805461045b90610a4a565b90600052602060002090601f01602090048101928261047d57600085556104c4565b82601f1061049657805160ff19168380011785556104c4565b828001600101855582156104c4579182015b828111156104c35782518255916020019190600101906104a8565b5b5090506104d191906104d5565b5090565b5b808211156104ee5760008160009055506001016104d6565b5090565b6000604051905090565b600080fd5b600080fd5b600080fd5b600080fd5b6000601f19601f8301169050919050565b7f4e487b7100000000000000000000000000000000000000000000000000000000600052604160045260246000fd5b61055982610510565b810181811067ffffffffffffffff8211171561057857610577610521565b5b80604052505050565b600061058b6104f2565b90506105978282610550565b919050565b600067ffffffffffffffff8211156105b7576105b6610521565b5b6105c082610510565b9050602081019050919050565b82818337600083830152505050565b60006105ef6105ea8461059c565b610581565b90508281526020810184848401111561060b5761060a61050b565b5b6106168482856105cd565b509392505050565b600082601f83011261063357610632610506565b5b81356106438482602086016105dc565b91505092915050565b60008060408385031215610663576106626104fc565b5b600083013567ffffffffffffffff81111561068157610680610501565b5b61068d8582860161061e565b925050602083013567ffffffffffffffff8111156106ae576106ad610501565b5b6106ba8582860161061e565b9150509250929050565b600081519050919050565b600082825260208201905092915050565b6000819050602082019050919050565b600081519050919050565b600082825260208201905092915050565b60005b8381101561072a57808201518184015260208101905061070f565b83811115610739576000848401525b50505050565b600061074a826106f0565b61075481856106fb565b935061076481856020860161070c565b61076d81610510565b840191505092915050565b600073ffffffffffffffffffffffffffffffffffffffff82169050919050565b60006107a382610778565b9050919050565b6107b381610798565b82525050565b6000819050919050565b6107cc816107b9565b82525050565b600060808301600083015184820360008601526107ef828261073f565b91505060208301518482036020860152610809828261073f565b915050604083015161081e60408601826107aa565b50606083015161083160608601826107c3565b508091505092915050565b600061084883836107d2565b905092915050565b6000602082019050919050565b6000610868826106c4565b61087281856106cf565b935083602082028501610884856106e0565b8060005b858110156108c057848403895281516108a1858261083c565b94506108ac83610850565b925060208a01995050600181019050610888565b50829750879550505050505092915050565b600060208201905081810360008301526108ec818461085d565b905092915050565b600082825260208201905092915050565b7f6d757374206772656174746572207468616e2030000000000000000000000000600082015250565b600061093b6014836108f4565b915061094682610905565b602082019050919050565b6000602082019050818103600083015261096a8161092e565b9050919050565b600061097c826106f0565b61098681856108f4565b935061099681856020860161070c565b61099f81610510565b840191505092915050565b6109b381610798565b82525050565b6109c2816107b9565b82525050565b600060808201905081810360008301526109e28187610971565b905081810360208301526109f68186610971565b9050610a0560408301856109aa565b610a1260608301846109b9565b95945050505050565b7f4e487b7100000000000000000000000000000000000000000000000000000000600052602260045260246000fd5b60006002820490506001821680610a6257607f821691505b60208210811415610a7657610a75610a1b565b5b5091905056fea264697066735822122058e61a57ff37720533e037ed969550bbd7675df805d5f90e23a276bf5ece5e0264736f6c63430008090033",
  "linkReferences": {},
  "deployedLinkReferences": {}
}